:020000040800F2
:1000000000000220816E0008290B00082D0B00085B
:10001000310B0008350B0008390B00080000000008
:100020000000000000000000000000003D0B000880
:10003000410B000800000000450B0008490B0008B8
:10004000C56E0008C56E0008C56E0008C56E0008C4
:10005000C56E0008C56E0008C56E0008C56E0008B4
:10006000C56E0008C56E0008C56E0008C56E0008A4
:10007000C56E0008C56E0008C56E0008C56E000894
:10008000C56E0008C56E0008C56E0008C56E000884
:10009000C56E0008C56E0008C56E0008C56E000874
:1000A000C56E0008C56E0008C56E0008C56E000864
:1000B000C56E0008C56E0008C56E0008C56E000854
:1000C000C56E0008C56E0008C56E0008C56E000844
:1000D000C56E00088D0A0008C56E0008C56E0008D0
:1000E000C56E0008C56E0008C56E0008C56E000824
:1000F000C56E0008C56E0008C56E0008C56E000814
:10010000C56E0008C56E0008C56E0008C56E000803
:10011000C56E0008C56E0008C56E0008C56E0008F3
:10012000C56E0008C56E0008C56E0008C56E0008E3
:10013000C56E0008C56E0008C56E0008C56E0008D3
:10014000C56E0008C56E0008C56E0008C56E0008C3
:10015000C56E0008C56E0008C56E0008C56E0008B3
:10016000C56E0008C56E0008C56E0008C56E0008A3
:10017000C56E0008C56E0008C56E0008C56E000893
:08018000C56E0008C56E000801
:1001880010B5054C237833B9044B13B10448AFF3C9
:1001980000800123237010BD6004002000000000CF
:1001A800A0710008084B10B51BB108490848AFF307
:1001B80000800848036803B910BD074B002BFBD02B
:1001C800BDE81040184700BF00000000640400208C
:1001D800A07100085C04002000000000154B002BF3
:1001E80008BF134B9D46A3F5803A00218B460F4666
:1001F8001348144A121A06F09BFE0F4B002B00D02E
:1002080098470E4B002B00D098470020002104008F
:100218000D000D48002802D00C4806F04DFF06F0EE
:100228005FFE2000290006F089FD06F049FE00BFA8
:1002380000000800000000000000000000000000AE
:1002480060040020C4A20120C1700008CD7000081D
:10025800034A044B9088B3F87C321844704700BFB7
:100268007C0400205C480020F0B51F4B9C8840F6B9
:10027800B73294421A881ED902EB420203EB4202BB
:100288001A4FC2F80600518118885D88461C01354E
:1002980087FB0620F41787FB0527E91740F6B83EC9
:1002A800C4EBA010C1EBA7110EFB10600EFB11529E
:1002B80018805A80F0BD02EB420203EB42020B4D5C
:1002C800C2F80600518118889C88013085FB00120D
:1002D800C11740F6B836C1EBA21106FB1102611C2A
:1002E8001A809980F0BD00BF7C040020F1197605C2
:1002F800F0B4264BB3F87C42B4F57A7F26D3B3F832
:100308007852234F03F51E7404EBC504A281C4F888
:1003180006006181B3F87802B3F87A52461C0135B9
:1003280087FB0620F41787FB0527E917C4EBA01005
:100338004FF47A72C1EBA71102FB106002FB115255
:10034800A3F87802A3F87A22F0BC7047B3F8786271
:100358000F4D03F51E7404EBC6046181C4F8060052
:10036800A281B3F87802B3F87C42013085FB001211
:10037800C117C1EBA2114FF47A7202FB1102611C82
:10038800A3F87822A3F87C12F0BC70475C480020E0
:10039800D34D6210034B588800EB400003EB40003C
:1003A800063070477C040020034BB3F87A0203EB55
:1003B800C00000F27E2070475C48002010B4094855
:1003C800094B41888488013183FB0123CA17C2EB9A
:1003D800A31240F6B83303FB1213621E43808280D7
:1003E80010BC70477C040020F119760510B40B4846
:1003F8000B4BB0F87A12B0F87C42013183FB012331
:10040800CA17C2EBA3124FF47A7303FB1213621ECE
:10041800A0F87A32A0F87C2210BC70475C48002013
:10042800D34D6210014B9888704700BF7C040020B0
:10043800014BB3F87C0270475C480020364B3748C4
:100448001A68002142F001021A6099601A6822F0C5
:10045800847222F480321A6058601A6882B022F4DA
:1004680080221A60D960009101911A6842F48032A2
:100478001A601A4603E0009BB3F5A06F09D0136811
:1004880003F400330193009B01330093019B002B7D
:10049800F1D0214B1B6813F4003318BF01230193DB
:1004A800019B012B05D01E4B4FF000629A6002B0F1
:1004B8007047194B1B491A6C1B4842F080521A644A
:1004C8000A6842F480420A609A689A609A6842F41C
:1004D80000429A609A6842F4A0529A6058601A687A
:1004E80042F080721A601A4611680B4B8901FBD5DD
:1004F8000E4A40F2056111609A6822F003029A6080
:100508009A6842F002029A601A46936803F00C0354
:10051800082BFAD1C7E700BF00380240103000248A
:1005280000ED00E00070004008544007003C024025
:100538001848836803F00C03042B28D0082B09D033
:10054800154B144A15499268C2F303128A5CD340CA
:100558000B6170474368416813F4800F436818BF04
:100568000F4801F03F020CBF0B49B0FBF2F1C3F397
:10057800881308BFB1FBF2F101FB03F2054B5B687E
:10058800C3F3014301335B00B2FBF3F3D9E7044B38
:10059800D7E700BF003802400024F4000400002020
:1005A80000127A0010B54FF480410B4802F090FD1C
:1005B8000A4B00BF013BFCD1094C084B064823609D
:1005C8004FF4804102F082FD064B00BF013BFCD195
:1005D800044B236010BD00BF000C024040420F00D6
:1005E800740601208096980010B584B0FFF730FE9D
:1005F8000446424800F0AEF9B4F5FA7F07D8404BFC
:100608001B689C4203D0082808D804B010BD3D4A96
:100618001368082843F001031360F6D94FF400511A
:10062800394802F05FFD092201A9344800F06EF94B
:100638009DF80430532BE8D19DF80C30452BE4D1BC
:100648009DF80530413B142BDFD801A252F823F066
:10065800F50600081306000813060008E706000858
:1006680013060008130600081306000813060008FE
:10067800130600081306000813060008DD06000824
:100688001306000813060008D5060008CB06000864
:1006980013060008B306000813060008130600082E
:1006A800AD060008FFF77EFFAFE7BFF34F8F17498E
:1006B800174BCA6802F4E0621343CB60BFF34F8F55
:1006C800FEE70F4BDDF806201A609EE7114B01226A
:1006D8001A709AE7104BDDF806201A6095E7BDF806
:1006E8000A10DDF80600FFF7BFFD8EE7BDF80A2007
:1006F800DDF806000021FFF7FBFD86E778060120FC
:100708001800002010E000E0000C024000ED00E0BE
:100718000400FA052A6A0020BCA2012070B584B042
:10072800036886888579CDF8053053244523092246
:1007380001A90648ADF809608DF80B508DF8044002
:100748008DF80C3000F08CF804B070BD306A0020D1
:10075800024A136843F001031360704710E000E099
:1007680000B50E4A136883B023F00103136068468E
:10077800002345228DF800208DF801308DF80230D5
:100788008DF803308DF804308DF805308DF806307B
:10079800FFF7C4FF03B05DF804FB00BF10E000E002
:1007A80008B5074805F0A0F90221054805F07AFACE
:1007B8000028F9D00248BDE8084005F0C1B900BFDB
:1007C8000020014040F6FF73024A984228BF1846AD
:1007D800906070470074004010B5012186B008464B
:1007E80005F0F2FB01214FF0005005F017FC002442
:1007F8001022032369460B4800928DF804308DF8C7
:10080800074002F0E1FB00F037FD204602A9029400
:100818000394059400F03EFD2046012100F058FDA8
:1008280006B010BD000002404188084B0088013125
:1008380083FB0123CA17C2EBA33249F6404303FBEB
:100848001213181AB0FA80F040097047AD8BDB68B4
:1008580042880088101AB0FA80F04009704700BF3B
:100868004388B0F800C02DE9F047254E5F1C86FB91
:100878000754FD17C5EBA43449F6404909FB147425
:1008880064453AD0174652B3B6461D46013900268C
:1008980049F63F4809E009FB1454A4451D46438026
:1008A80006F101061AD0964219D05C1C054411F8CD
:1008B80001AF85F804A04345A3B203F101058EFBFF
:1008C800054A4FEAE574C4EBAA34E4D100250124B3
:1008D8002B46A445438006F10106E4D13746094B6F
:1008E8001A683AB90124224640F2277106481C606A
:1008F80000F070FC3846BDE8F0870027EFE700BF3E
:10090800AD8BDB681C6A002000100140F0B403883E
:1009180044889C421CD01746BAB10139002449F6D4
:100928003F4601E0944210D0034401341B7901F89A
:10093800013F03884588B34203F1010314BF9BB20A
:1009480000239D420380EDD127463846F0BC70470E
:100958000027FAE74388008883423CBF03F51C431D
:100968004033181A014B00221A707047C0A20120A8
:100978000023038043807047012801D0012070477D
:10098800F0B5054689B03B480E4600F05FFA2946A7
:10099800022005F019FB07220621374802F0A6FBC2
:1009A80007221146344802F0A1FB294610200024F2
:1009B80005F042FB022702A940232F4802938DF835
:1009C8000F508DF80C708DF80D708DF80E4002F0F8
:1009D800FBFA02A98023284802938DF80C708DF841
:1009E8000E408DF80D708DF80F5002F0EDFA04A846
:1009F80000F0F2FA0C2304A91E48ADF81A30ADF83D
:100A08001C40ADF81440ADF81640ADF818400496F7
:100A180000F080FA40F22551164800F025FC2246E5
:100A280040F22771134800F0D5FB40F225512A46C1
:100A3800104800F0CFFB114A114B14804FF440705E
:100A480054801C805C8004F0FFFB2522052301A84C
:100A58008DF804208DF805308DF806408DF8075084
:100A680004F0FCFB2946034800F0DAFA204609B0F6
:100A7800F0BD00BF001001400004024078060120CC
:100A8800306A002010B540F2255182B01F4800F0AE
:100A9800C7FBE0B940F227711C4800F0C1FBA0B1C8
:100AA8001B4B1C788CB91B4A13885188994223D058
:100AB80049F63F40834202EB03011CBF5C1CA4B211
:100AC80009791248148000F0DFFA02B010BD40F234
:100AD80025510E4800F0C8FB0C4800F0D9FA02A9CD
:100AE800012201F8010D0C48FFF7BAFE0028D1D108
:100AF8000A4B01225A60CDE7224640F2277103488B
:100B080000F068FB054B1C6002B010BD00100140EE
:100B1800C0A20120306A0020780601201C6A00204B
:100B2800704700BFFEE700BFFEE700BFFEE700BF5B
:100B3800FEE700BF704700BF704700BF704700BFA7
:100B480030B583B0FFF76EFC002830D1324CFFF788
:100B58006FFC00BB314B22681B682F499A4254D264
:100B68002F4B1B698A889BB292B293420BD08B8021
:100B78000A68CDF8012068464422ADF805308DF8A2
:100B88000020FFF7CBFDA379234D53BB2368013326
:100B9800236003B030BDFFF707FC236802689A4260
:100BA800D8D1C088FFF70EFEFFF720FCD2E7FFF789
:100BB800F1FB194C026823689A420546C7D14FF4E5
:100BC8008051184802F082FAAB88174A15485361D9
:100BD800DB074FF002011CD502F078FAFFF7EEFBB5
:100BE800B5E7FFF7DDFD2B899BB298420246CDD0D1
:100BF80028812B68CDF8013068464123ADF80520DF
:100C08008DF80030FFF78AFDC0E7FFF7A9FD03B0B4
:100C180030BD02F05DFAE1E7246A0020BCA20120A1
:100C280000080240000C02400010024008B50121F3
:100C38004FF4006005F046FA00214FF40060BDE86B
:100C4800084005F03FBA00BFF0B583680B4F46680F
:100C5800C56804687A68016990F814E043EA0600F8
:100C6800284322F4FD43204340EA010223F07F0396
:100C780013434EEA03037B60F0BD00BF002C014024
:100C880000230375036043608360C360036170479A
:100C9800014B1860704700BFA0802542014B1860C7
:100CA800704700BF002C0140024B186800F0030099
:100CB800704700BF002C01400A49036830B48B60BC
:100CC80083684468C568CA6800691C432C4322F4D9
:100CD800FF6323F0070344EA00021343CB6030BCF0
:100CE800704700BF002C014000230360436083600D
:100CF800C3600361704700BF014B1869C0B27047F9
:100D0800002C0140044B82B003440022019201935D
:100D1800019B186802B07047142C0140094A036807
:100D280030B45362436893628568C1680469D36AC2
:100D3800406929432143014323F0F7030B43D3625E
:100D480030BC7047002C014000234FF0FF3280E890
:100D58000C008360C360036143617047014B186BEB
:100D6800704700BF002C0140014BD3F8800070474A
:100D7800002C0140014BC3F880007047002C014053
:100D8800014B986C704700BF002C0140014B186064
:100D9800704700BFA0852542014B1860704700BF0F
:100DA800A4852542014B1860704700BFA8852542DD
:100DB800014B1860704700BFAC852542014B186095
:100DC800704700BFAC812542014B1860704700BFD7
:100DD800B081254200F00100024B80F0010018604C
:100DE800704700BFB4812542014B1860704700BFAF
:100DF800B8812542014B1860704700BF8C85254299
:100E080029B9054AD36B23EA0000D0637047024B27
:100E1800DA6B1043D8637047002C0140014B98638C
:100E2800704700BF002C0140034B5B6B034214BFAB
:100E380001200020704700BF002C0140FFF7F4BFDD
:100E4800014B9863704700BF002C014008B52B4B3D
:100E5800984219D02A4B984220D02A4B984229D040
:100E6800294B984232D0294B98423BD0284B984284
:100E780000D008BD0121202005F024F90021202000
:100E8800BDE8084005F01EB90121102005F01AF947
:100E980000211020BDE8084005F014B901214FF4E5
:100EA800003005F001F900214FF40030BDE808409A
:100EB80005F0FAB801214FF4802005F0F5F800217B
:100EC8004FF48020BDE8084005F0EEB801214FF44A
:100ED800002005F0E9F800214FF40020BDE80840A3
:100EE80005F0E2B801214FF4801005F0DDF800218B
:100EF8004FF48010BDE8084005F0D6B80010014056
:100F08000044004000480040004C004000500040B1
:100F180000140140028A0B89F0B592B2CF888E88FE
:100F2800044622F440523A4348890D468989228270
:100F3800A289334392B2034322F4B05222F00C0246
:100F48009BB21343A381A38A9BB223F440730B4340
:100F580085B0A382684604F0C1FF1D4B9C4228D08F
:100F680003F580639C4224D0029AA389A18913F4D3
:100F7800004F2B6802EB820214BF5B009B0002EB60
:100F88008202B2FBF3F0134AA2FB00356D09642319
:100F9800090405FB13034FEA05150CD41B01323372
:100FA800A2FB0323C3F343132B439BB2238105B056
:100FB800F0BD039AD9E7D9003231A2FB0131C1F360
:100FC800421242EA05039BB2238105B0F0BD00BF7F
:100FD800001001401F85EB5100234FF416510C22DD
:100FE800016042818380C38003818381704700BF91
:100FF80030B44A880D888C88038AC9882A432243DA
:101008000A439BB292B223F470631343038230BC49
:10101800704700BF0023038043808380C3807047EC
:10102800838929B923F400531B041B0C838170475F
:101038009BB243F400538381704700BF038B03F4D2
:101048007F430383038B9BB219430183704700BF1F
:10105800838919B9C3F30E03838170476FEA434349
:101068006FEA53439BB28381704700BF838A29B9D3
:1010780023F400631B041B0C838270479BB243F468
:1010880000638382704700BFC1F308018180704705
:101098008088C0F308007047038A23F00F031B04FD
:1010A8001B0C0382038A9BB219430182704700BF5D
:1010B800838929B923F002031B041B0C8381704721
:1010C8009BB243F002038381704700BF838923F4F6
:1010D80000631B041B0C838183899BB219438181A4
:1010E800704700BF038A23F020031B041B0C0382F4
:1010F800038A9BB219430182704700BF038A29B94A
:1011080023F480431B041B0C038270479BB243F4F7
:1011180080430382704700BF83899BB243F0010379
:1011280083817047838A29B923F008031B041B0CA9
:10113800838270479BB243F008038382704700BFE5
:10114800038BDBB20383038B9BB243EA0121018348
:10115800704700BF838A29B923F020031B041B0CA6
:10116800838270479BB243F020038382704700BF9D
:10117800838A29B923F010031B041B0C8382704750
:101188009BB243F010038382704700BF838A23F029
:1011980004031B041B0C8382838A9BB2194381823C
:1011A800704700BF838A29B923F002031B041B0C74
:1011B800838270479BB243F002038382704700BF6B
:1011C800838A9BB21AB923EA0101818270471943C5
:1011D8008182704710B401F01F04C1F3421101234A
:1011E800012903FA04F30FD002290CBF1030143080
:1011F8002AB9026810BC22EA030303607047026838
:1012080010BC1343036070470C30F1E703881942A0
:1012180014BF012000207047C94389B2018070477C
:10122800C1F3421210B4012301F01F04012A03FA8A
:1012380004F315D0022A0CBF028A828A92B21340A4
:10124800028892B24BB10123090A03FA01F10A425A
:1012580014BF1846002010BC7047184610BC7047D1
:10126800828992B21340EBE7090A012303FA01F1DC
:10127800C94389B20180704708B501214FF0005079
:1012880004F012FF00214FF00050BDE8084004F0C0
:101298000BBF00BFF0B40F684E68094D8C68CA6870
:1012A8002B6847EA06010C4340F6FE712243814051
:1012B80023EA010302FA00F003432B60F0BC7047F5
:1012C800007400400023036043608360C36070477C
:1012D80041B9084901220B6802FA00F023EA00002C
:1012E80008607047034901220B6802FA00F01843AE
:1012F800086070470074004049B9094900094B6803
:10130800012202FA00F023EA00004860704704490D
:1013180000094B68012202FA00F018434860704740
:1013280000740040054A536818B923F0030353605A
:10133800704743F003035360704700BF00740040D8
:1013480082B00022054B01920193019B0833184497
:101358000190019B196002B0704700BF0074004003
:1013680082B00022054B01920193019B143318446B
:101378000190019B196002B0704700BF00740040E3
:101388000828044B0CBF42EA012242EA0142C2503B
:10139800704700BF2074004082B00022064B0192C3
:1013A8000193019B2C3303EB90000190019B18687B
:1013B80080B202B0704700BF0074004049B90949C3
:1013C8004FF480520B6802FA00F023EA000008602C
:1013D800704704494FF480520B6802FA00F0184332
:1013E800086070470074004032B9064A13688140AB
:1013F80023EA010111607047024A136881401943CA
:101408001160704700740040FFF7EEBF034B5B6B41
:101418008140194214BF0120002070470074004029
:10142800014B81405963704700740040054B1A68AE
:101438005B6B814011EA030003D00A4214BF01200C
:101448000020704700740040014B81405963704789
:101458000074004008B50121202004F009FE002195
:101468002020BDE8084004F003BE00BF0F4B1A68F7
:1014780022F0F00230B41A601D680168826844687E
:1014880029430A432243402C1A6007D11A6822F4E0
:1014980080321A60C26819680A431A60034A1368DE
:1014A80043F00403136030BC704700BF00040650CB
:1014B8000023036043608360C3607047024A136877
:1014C80043F004031360704700040650044B9A6805
:1014D80022F01F029A609A6810439860704700BF14
:1014E80000040650014B5860704700BF00040650C6
:1014F800024B1868C0F30320704700BF0004065071
:10150800054BDA6802601A6942605A6982609A6912
:10151800C260DB690361704700040650024A9368A1
:1015280043F48073936070470004065009490B6ABE
:1015380003608B6843600B6840F8083F002303F1A1
:101548003E02013351F8222040F8042F332BF6D104
:10155800704700BF000406500C4B026810B41A62B2
:1015680042689A6050F8082F1A601A6842F004021C
:101578001C461A60002303F13E02013350F8041F91
:1015880044F82210332BF6D110BC704700040650E3
:10159800054A136818B923F008031360704743F02D
:1015A80008031360704700BF00040650054A136A19
:1015B80029B923EA000000F0FF00106270471843C1
:1015C8001062704700040650044BC2044CBF1B68ED
:1015D8005B6A184214BF01200020704700040650BF
:1015E800014BC0435862704700040650044A516AD0
:1015F800136A0B40034214BF01200020704700BF4C
:1016080000040650C043024BC0B25862704700BF86
:101618000004065000217F22FF2380E80E00704757
:10162800044B20B9CA21532259625A627047FF22DB
:101638005A6270470028004082B000230E49019387
:10164800CB685B0614D44FF0FF33CB6000E04AB997
:10165800CA68019B01330193019BB3F5803F02F0F7
:101668004002F4D1044BD868C0F3801002B0704730
:10167800012002B0704700BF0028004038B5104C68
:10168800CA225323626263620546FFF7D5FF98B109
:10169800A36823F04003A360A2682B681343A360E8
:1016A800AB68236123696A6843EA02432361E368FC
:1016B80023F08003E3600120014BFF225A6238BD0A
:1016C80000280040024AD36823F08003D3607047A3
:1016D800002800400F4982B053230020CA220190FD
:1016E8004A624B62CB6823F0A003CB6000E04AB9A2
:1016F800CA68019B01330193019BB3F5003F02F0D7
:101708002002F4D1034BD868FF22C0F340105A627C
:1017180002B070470028004030B51E4C83B0002549
:10172800CA225323019562626362FFF785FFC0B145
:1017380042F2011325606360A36803F00703A36006
:10174800214600E04AB9CA68019B01330193019B15
:10175800B3F5803F02F00402F4D10E4BDA68520769
:1017680005D400200B4BFF225A6203B030BD002283
:101778004FF6FF7008499C689A60586119619A6130
:10178800DA611A62DA601A64FFF7A4FF003018BF42
:101798000120E7E700280040FF007F0038B50E4C25
:1017A800CA225323626263620546FFF745FF50B1C0
:1017B800A36865B923F01003A360074AD36823F030
:1017C8008003D3600120044BFF225A6238BD43F0E6
:1017D8001003A360F1E700BF002800400A4B532222
:1017E800CA2159625A629A6830B902F0DF029A60D7
:1017F800054BFF225A62704742F020029A60024B62
:10180800FF225A62704700BF0028004070B5374B6E
:10181800002838D19E6816F040065FD1CE700B784C
:10182800092B98BF002408D900220A3BDBB20132F9
:10183800092BD2B2F9D81401E4B24D782343092D0B
:101848004FEA03444DD900200A3DEDB20130092D7D
:10185800C0B2F9D80001C2B28878154309284FEA06
:10186800052540D900230A38C0B201330928DBB264
:10187800F9D81901C9B2344344EA050240EA010320
:1018880042EA03040DE09A6812F0400223D1CA70BC
:1018980048780B788C78010241EA0343234343EAF2
:1018A8000204124DCA2253236A626B62FFF7C4FE18
:1018B80068B104F07F3323F0FE432B60EB6823F01C
:1018C8008003EB60FFF706FF003018BF0120074BCD
:1018D800FF225A6270BDCA781204D9E7CE7836045E
:1018E8009DE70022B8E70021C5E700BF00280040B7
:1018F8000023C3700370437083707047164B1B68D6
:1019080003F07F3323F0FE431A0CF0B5C3F3062728
:1019180002F0400EDBB202F03F0681F803E00E70E1
:101928004F708B70B8B93D091C09360906EB86065D
:1019380005EB850504EB840402F00F0207F00F079E
:1019480003F00F0302EB460207EB450503EB4404E3
:101958000A704D708C70F0BD00280040014B986AE9
:101968005B6870470028004038B500283CD14B78A8
:10197800DA0604D523F010030A33DBB24B70CA78B9
:10198800092A98BF002408D900200A3AD2B20130A7
:10199800092AC0B2F9D80401E4B22243092B4FEA5C
:1019A800024445D900200A3BDBB20130092BC0B202
:1019B800F9D80501EDB288782B4309284FEA0325A9
:1019C8004FF0000207D90A38C0B201320928D2B252
:1019D800F9D81201D2B20B7844EA433444EA050339
:1019E800024343EA020409E04878CB788A780C7805
:1019F800010241EA0343134343EA44340D4DCA222A
:101A080053236A626B62FFF717FE68B124F07F43C5
:101A180023F0C0036B60EB6823F08003EB60FFF7F3
:101A280059FE003018BF0120024BFF225A6238BD10
:101A38000025C0E70028004001230022C27003707F
:101A480083704370704700BF164B5B6823F07F4379
:101A580023F0C003F0B4C3F30724DDB2C3F3423765
:101A680004F01F061B0C0F704E70CB708D70B8B948
:101A780036092A091809B70002EB820204F00F049C
:101A880005F00F053E4400EB800003F00F0305EB63
:101A9800420204EB460403EB40038A704C70CB709F
:101AA800F0BC704700280040F0B5404B002851D1E9
:101AB8009D6815F0400575D1D5701378092B4FF046
:101AC800000007D90A3BDBB20130092BC0B2F9D8B4
:101AD8000001C0B254780343092C4FEA03434FF086
:101AE800000607D90A3CE4B20136092CF6B2F9D847
:101AF8003601F6B29078344309284FEA04244FF0AF
:101B0800000707D90A38C0B201370928FFB2F9D847
:101B18003F01FFB292F80CE0BEF1090F47EA000757
:101B28004FF000060AD9AEF10A0E5FFA8EFE0136B2
:101B3800BEF1090FF6B2F6D83601F6B290685268CF
:101B4800024315432B431C434EEA06063C4344EA32
:101B5800066615E09E6816F0400320D1D370D2F8CF
:101B680008E05068947817785578167B4EEA00009C
:101B7800204340EA074242EA052242EA06661E433B
:101B88000A4B5322B1F5807F4FF0CA0058625A625F
:101B98000CBFDE611E62054BFF225A62F0BDD6788B
:101BA8003304DCE7D5782D0487E700BF0028004020
:101BB800002301220273C370037043708370836033
:101BC80043607047254BB1F5807F0CBFDB691B6A0A
:101BD8002DE9F047C3F30741C3F3072EDFB21E0E0A
:101BE80003F0804901F03F0501F0400A0EF07F0440
:101BF80007F07F0806F03F0C03F08033157082F879
:101C080003A0547082F8028082F80CC0C2F80890D1
:101C1800536008BB2D0924094FEA18104FEA1C131A
:101C280005EB850504EB840400EB800003EB8303DC
:101C380001F00F010EF00F0E07F00F0706F00F0668
:101C480001EB45010EEB440407EB400006EB4303B0
:101C58001170547090701373BDE8F087002800402D
:101C680030B4154B82B053220025CA2401955C621A
:101C78005A629A68E1B922EA00029A60000A194693
:101C880000E04AB9CA68019B01330193019BB3F58F
:101C9800803F02EA0002F4D1074BDB68034214BF1D
:101CA80001200020044BFF225A6202B030BC70476A
:101CB800104398600120F5E70028004030B4084B35
:101CC8000A43CA255324B0F5807F5D625C620CBF6D
:101CD8005A649A64024BFF225A6230BC704700BFB4
:101CE80000280040044BB0F5807F0CBF586C986CFE
:101CF800C0F30E00704700BF00280040074BCA2100
:101D0800532259625A629A6822F007029A609A68C6
:101D1800FF21104398605962704700BF00280040B7
:101D2800054B10B45321CA24FF225C62596210BCCF
:101D380058615A62704700BF00280040014B58693B
:101D480080B270470028004010B4144983B0532370
:101D58000024CA2201944A624B628B68C0B923F4FA
:101D680080638B6000E04AB9CA68019B0133019324
:101D7800019BB3F5803F02F00402F4D1074BD86809
:101D8800C0F38000054BFF225A6203B010BC7047B5
:101D980043F480638B600120F4E700BF0028004013
:101DA800084B10B45322CA245C625A629A6810BC69
:101DB80022F480229A609A6811430843FF229860AF
:101DC8005A62704700280040024B986800F480204F
:101DD800704700BF00280040084B10B45322CA24A3
:101DE8005C625A629A6810BC22F4E0029A609A68AF
:101DF80011430843FF2298605A6270470028004048
:101E080070B50A4CCA2253236262636206460D46C5
:101E1800FFF712FC30B13543A561E36823F0800376
:101E2800E3600120014BFF225A6270BD0028004088
:101E380038B50E4CCA225323626263620546FFF727
:101E4800FBFB50B1A36865B923F08003A360074A80
:101E5800D36823F08003D3600120044BFF225A6229
:101E680038BD43F08003A360F1E700BF00280040BD
:101E78000A4B5322CA2159625A629A6830B922F42D
:101E880000029A60054BFF225A62704742F4000232
:101E98009A60024BFF225A62704700BF0028004038
:101EA800074BCA21532259625A629A6822F40022C7
:101EB8009A609A68FF21104398605962704700BF82
:101EC8000028004030B4114DCA2453236C626B6261
:101ED800EB68DC030AD5EB68DB0307D54FF4003366
:101EE80001E0013B02D0EC68E403FAD4074BDC685C
:101EF800E40308D40A431043D8630120034BFF22AC
:101F08005A6230BC70470020F8E700BF0028004044
:101F18000B4B9B6823F4006310B423F0080351B9FA
:101F28000343074ACA245320FF215462506210BC5D
:101F380093605162704743F400630343F1E700BFC5
:101F4800002800402D4BF0B51F6B5B6B07F07F3707
:101F580027F0FE4623F07F43350C23F0C004C6F378
:101F680006268F704E7005F03F0EC4F3042603F06A
:101F78003F0305F040050027C4F3423481F800E030
:101F8800CD70D770937056701470A8BB0C784878D1
:101F98008B78270906091D0906EB860605EB8505DA
:101FA80007EB870704F00F0400F00F0003F00F039E
:101FB80000EB460003EB450304EB47040C70487044
:101FC8008B7050789178137806090D091C0906EB77
:101FD800860600F00F0005EB850501F00F0104EB04
:101FE800840403F00F0300EB460001EB450103EB0B
:101FF8004403507091701370F0BD00BF002800407A
:10200800014B986B704700BF00280040054A136CCD
:1020180019B143EA40001064704723EA4000106495
:10202800704700BF0028004029B9054A136C23EA0D
:10203800000010647047024B1A6C10431864704714
:1020480000280040044B1A6C22F4C0521A641A6C1F
:1020580010431864704700BF00280040044B1A6CF6
:1020680022F4E0621A641A6C10431864704700BFC7
:1020780000280040044B1A6C22F4C0421A641A6CFF
:1020880010431864704700BF00280040054A136CCD
:1020980018B923F080031364704743F08003136476
:1020A800704700BF00280040054A136C18B943F474
:1020B80000431364704723F400431364704700BF60
:1020C8000028004082B00022054B01920193019B39
:1020D80003EB80000190019B196002B0704700BFBC
:1020E8005028004082B00022054B01920193019BC9
:1020F80003EB80000190019B186802B0704700BF95
:1021080050280040044B1A6C22F480321A641A6C6E
:1021180010431864704700BF00280040044B1A6C35
:1021280022F400321A641A6C10431864704700BF16
:1021380000280040044B1A6C22F480221A641A6C9E
:1021480010431864704700BF0028004010B5184CB1
:10215800CA22532362626362E3681A070AD5E368F6
:102168001B0707D54FF4805301E0013B02D0E2681A
:102178001207FAD40E4AD36813F0080313D19468EF
:10218800E40604D518460A4BFF225A6210BD0843DC
:10219800D062FFF79FFA064B00304FF0FF0218BFDE
:1021A80001205A6210BD024BFF2200205A6210BD66
:1021B80000280040104B10B45322CA245C625A62B3
:1021C8009A6879B920F0040122EA01029A601A6C2F
:1021D80000F0040022EA00001864074B10BCFF223C
:1021E8005A62704720F004010A439A601A6C00F0A2
:1021F800040010431864F0E700280040044BDA6834
:1022080043F677731340034214BF01200020704740
:1022180000280040054AD36880B240F0800003F0EF
:10222800800363EA0003D360704700BF00280040C2
:1022380009490A6C8B68C96802F0040202EAD032C4
:102248000340134306D089B211EA101314BF0120CA
:10225800002070471846704700280040054AD36898
:10226800C0F30F1040F0800003F0800363EA00031E
:10227800D360704700280040014B1868000C704775
:10228800002004E0024B1868C0F30B00704700BF41
:10229800002004E029B9054A536823EA0000506089
:1022A8007047024B5A68104358607047002004E09A
:1022B80029B9054A936823EA000090607047024BE9
:1022C8009A68104398607047002004E029B9054ACD
:1022D800D36823EA0000D0607047024BDA681043E5
:1022E800D8607047002004E008B501214FF4006071
:1022F80003F0DAFE00214FF40060BDE8084003F067
:10230800D3BE00BF034A536823F4C0731843506018
:10231800704700BF002C004082B0084A0023019398
:10232800536823F07F030193019B00F07F00034370
:102338000193019B536002B0704700BF002C00401E
:10234800014B01221A607047A4800542024B00F03D
:102358007F001860704700BF002C0040024B40F01F
:1023680080001860704700BF002C0040024B98683E
:10237800003018BF01207047002C0040014B00229C
:102388009A607047002C0040044B054900221A60EF
:102398005A609A60DA605961704700BF003C01409A
:1023A800FFFF7F00837933B31C4B02794179F0B486
:1023B80007681E68FC4326401E605D6802F1804283
:1023C800254002F59E325D6014683C431460046841
:1023D8009868E54328409860DA68102902EA0502FF
:1023E800DA6013D001F1804303F59E331A68144371
:1023F8001C60F0BC70470379016803F1804303F562
:102408009E331A6822EA01021A6070479A682243CA
:102418009A60DA681443DC60F0BC7047003C014005
:1024280000230C224271036003718371704700BF5F
:10243800024A136918431061704700BF003C01400D
:10244800034B5B69034214BF01200020704700BFA3
:10245800003C0140014B5861704700BF003C0140FF
:10246800054B1A685B69034004D0024214BF01207F
:102478000020704718467047003C0140014B5861E6
:10248800704700BF003C0140F0B501F003038DB078
:102498000024DB00ADF806400D46074616460294B8
:1024A800ADF80630FEF7D6FF202303A80394049462
:1024B8000593FEF7DBFFBDF8060080B2FFF706F8CC
:1024C8003C4635B154F8040BFFF70CF8E31BAB425C
:1024D800F8D3FFF723F800E068B10820FFF774F895
:1024E800029B01330293029BB3F5803FF4D110B1F4
:1024F80000200DB0F0BD07A8FFF702F8079B1BBA34
:102508003360089B1BBA7360099B1BBAB3600A9BB4
:102518001BBAF3600B9B1BBA012033610DB0F0BDF1
:102528002DE9F0410D468CB003F003011F4605F07C
:1025380003030024DB00C900ADF804409046ADF861
:10254800064006460294ADF80410ADF80630FEF7D2
:1025580081FF40222023954203940492059325D9B4
:102568004FF4803303A80693FEF780FFBDF80600FA
:1025780080B2FEF7ABFF344654F8040BFEF7B2FF07
:10258800A31B9D42F8D8FEF7C9FF00E0D0B1082090
:10259800FFF71AF8029B01330293029BB3F5803FC1
:1025A800F4D178B100200CB0BDE8F08103A80694FE
:1025B800FEF75CFFBDF8060080B2FEF787FF002D2E
:1025C800D9D1E0E7BDF8040080B2FEF77FFF4446AA
:1025D8003FB154F8040BFEF785FFC8EB04039F4294
:1025E800F7D8FEF79BFF0023029300E058B10820BC
:1025F800FEF7EAFF029B01330293029BB3F5803F8B
:10260800F4D10028CED1BDF8060080B2FEF75EFFF7
:10261800344635B154F8040BFEF764FFA31B9D4202
:10262800F8D8FEF77BFF0023029300E058B108209A
:10263800FEF7CAFF029B01330293029BB3F5803F6A
:10264800F4D10028AED107A8FEF75AFF079B1BBAA2
:10265800129A1360089B1BBA5360099B1BBA9360BC
:102668000A9B1BBAD3600B9B1BBA012013619AE724
:1026780008B5174B984212D0164B98421BD0164BF0
:10268800984200D008BD01214FF4004003F00CFD32
:1026980000214FF40040BDE8084003F005BD0121CA
:1026A8004FF4805003F00EFD00214FF48050BDE838
:1026B800084003F007BD01214FF4804003F0F4FC0B
:1026C80000214FF48040BDE8084003F0EDBC00BF96
:1026D8000030014000380040003C0040F0B44A8817
:1026E8000F888D88CC880B894E893A432A43224328
:1026F8008D89CC89098A1A43324303882A432243A5
:1027080003F4415313439BB20380838B23F4006388
:102718001B041B0C8383F0BC01827047828B8B687F
:1027280022F47B6222F00F0212042DE9F043120C0E
:10273800022482830484B0F81CE0A3421FFA8EFEB0
:1027480052D0304A8F889468002F0CBF4FF001098F
:102758004FF00209240242D42A4DB1F806C0D5F838
:102768008440D5F884206D68274EC4F38818BCF5DA
:10277800007F05F03F04C2F30272B6FBF4F505FBD7
:1027880008F4B4FBF2F433D04FEA4912B4FBF2F286
:1027980002EB82025200B2FBF3F305339AB21B4BF1
:1027A800A3FB0223DB085A08941E03F00103FD2C47
:1027B80094BF42EA032302230C884A8889894EEA97
:1027C800040E4EF4006E4EEA02020A434CEA03037A
:1027D80092B29BB2174303848783BDE8F083946861
:1027E80024F400049460B7E78F88B1F806C0E3E7E3
:1027F800240A04EB84046400B4FBF3F305339AB2AF
:10280800CDE700BF0038024000127A00CDCCCCCC16
:10281800002307220282038043808380C3800381D0
:1028280043818381C3817047002302228260038031
:1028380043808380C3808381704700BF038829B9A0
:1028480023F040031B041B0C038070479BB243F02A
:1028580040030380704700BF838B29B923F480634A
:102868001B041B0C838370479BB243F480638383F0
:10287800704700BF038823F400631B041B0C03800C
:1028880003889BB219430180704700BFB1F5804FA0
:10289800038805D023F480431B041B0C0380704776
:1028A8009BB243F480430380704700BF4FF6FF6339
:1028B8009942038804D09BB243F480730380704725
:1028C80023F480731B041B0C03807047838829B989
:1028D80023F004031B041B0C838070479BB243F056
:1028E80004038380704700BF838829B923F010034D
:1028F8001B041B0C838070479BB243F0100383803A
:10290800704700BF838B23F47B6323F00F031B0402
:1029180002221B0C83830284838B8A8970B44D88BE
:102928000C888E889BB22B4324F4007143F4006317
:10293800334389B2134300299BB20CBF4FF4807212
:1029480000221343838370BC704700BF808980B224
:10295800704700BF81817047038829B923F4005369
:102968001B041B0C038070479BB243F40053038085
:10297800704700BF03889BB243F4805303807047BD
:10298800012914BF008B808A80B27047008A80B208
:10299800704700BF83889BB21AB923EA010181807E
:1029A80070471943818070470123090903FA01F12F
:1029B800838889B29BB21AB923EA010181807047E2
:1029C80019438180704700BF0389194214BF012051
:1029D80000207047C94389B20181704710B48488C8
:1029E8000389012201F00F009BB202FA00F018409F
:1029F80006D00909A4B28A40144214BF012000205D
:102A080010BC704701F00F01012303FA01F1C9431B
:102A180089B20181704700BF08B5174B984212D0A0
:102A2800164B98421BD0164B984200D008BD012186
:102A38004FF4000003F038FB00214FF40000BDE81C
:102A4800084003F031BB01214FF4001003F02CFBC8
:102A580000214FF40010BDE8084003F025BB012118
:102A68004FF4800003F020FB00214FF48000BDE804
:102A7800084003F019BB00BF005400400058004054
:102A8800005C0040F0B5054685B068460E46AC8847
:102A980003F024FA029B32483268DFF8CCE0A0FB4E
:102AA800031024F03F042404800C240C87B23C4318
:102AB800AC80298821F001010904090C724529809C
:102AC80024D85200B3FBF2F39BB2032B07F10107A2
:102AD80098BF04232F84AB832888B7887289B48968
:102AE800318980B240F0010028802B8823F481636B
:102AF80023F002031B043A431B0C134344EA01026C
:102B08009BB292B22B802A8105B0F0BDF4884BF6B7
:102B1800FF718C421DD002EB820202EB8202B3FBF2
:102B2800F2F39BB243F48043C3F30B020AB943F0B8
:102B380001034FF496710B4C01FB00F284FB020178
:102B4800D217C2EBA112013292B243F400432A8495
:102B5800C1E702EB4202B3FBF2F39BB2E4E700BF2A
:102B680083DE1B43D34D6210A0860100002310B4FE
:102B78004BF6FF7141F288344FF480420460C18003
:102B8800828183800381438110BC7047038829B9FF
:102B980023F001031B041B0C038070479BB243F016
:102BA80001030380704700BF038829B923F48073A9
:102BB8001B041B0C038070479BB243F48073038093
:102BC800704700BF038829B923F400731B041B0C4A
:102BD800038070479BB243F400730380704700BFC3
:102BE80022B901F0FE0189B20182704741F001016A
:102BF80089B20182704700BF038829B923F4806332
:102C08001B041B0C038070479BB243F48063038052
:102C1800704700BF83899BB201F0FE0123F0FE03D9
:102C280019438181704700BF838929B923F00103C3
:102C38001B041B0C838170479BB243F00103838103
:102C4800704700BF038829B923F040031B041B0CFD
:102C5800038070479BB243F040030380704700BF76
:102C6800038819B9C3F30E03038070476FEA43431F
:102C78006FEA53439BB20380704700BF038829B1B2
:102C880023F080031B041B0C038070479BB243F0A6
:102C980080030380704700BFB1F5804F838B05D058
:102CA80023F480431B041B0C838370479BB243F4BB
:102CB80080438383704700BFB1F5005F038805D068
:102CC80023F400531B041B0C038070479BB243F48E
:102CD80000530380704700BF038829B923F010030D
:102CE8001B041B0C038070479BB243F01003038046
:102CF800704700BF01827047008AC0B2704700BFAA
:102D0800038829B923F480531B041B0C03807047E4
:102D18009BB243F480530380704700BFB1F5006F46
:102D2800038805D023F400631B041B0C0380704741
:102D38009BB243F400630380704700BFFFF7EEBF08
:102D4800038829B923F020031B041B0C0380704758
:102D58009BB243F020030380704700BF008BC0F391
:102D680007207047838829B923F400631B041B0CD0
:102D7800838070479BB243F400638380704700BF31
:102D8800838829B923F480531B041B0C8380704764
:102D98009BB243F480538380704700BF82B0002306
:102DA80001930190019B19440191019B188880B2FD
:102DB80002B0704783889BB21AB923EA0101818067
:102DC8007047194381807047838A008B9BB243EA1E
:102DD800004321F07F4203EA0200401AB0FA80F073
:102DE80040097047838A028B98B240EA024020F07B
:102DF8007F40704782B000230A0F0093019301902F
:102E08000092009B21F07F4153B1019B1433019341
:102E1800019B1B68194214BF0120002002B07047B3
:102E2800019B1833090C0193F2E700BFC94389B22B
:102E3800818270478388808A80B208409BB206D01E
:102E480003F4E06313EA114314BF01200020704724
:102E5800C94389B281827047014B1860704700BF2F
:102E680000300040014B5860704700BF0030004000
:102E7800014B9860704700BF00300040024B4AF693
:102E8800AA221A60704700BF00300040024B4CF67F
:102E9800CC421A60704700BF00300040034BDB682B
:102EA800184214BF01200020704700BF00300040C6
:102EB80008B53C4B984224D03B4B98422BD03B4B17
:102EC800984232D03A4B984239D03A4B984240D047
:102ED800394B984247D0394B98424ED0384B98429C
:102EE80055D0384B984200D008BD01214FF480706E
:102EF80003F0B0F800214FF48070BDE8084003F0FB
:102F0800A9B80121084603F0A5F800210120BDE871
:102F1800084003F09FB80121022003F09BF800212C
:102F28000220BDE8084003F095B80121042003F011
:102F380091F800210420BDE8084003F08BB8012176
:102F4800082003F087F800210820BDE8084003F0B6
:102F580081B80121102003F07DF800211020BDE880
:102F6800084003F077B80121202003F073F800210E
:102F78002020BDE8084003F06DB80121402003F08F
:102F880069F800214020BDE8084003F063B801213A
:102F9800802003F05FF800218020BDE8084003F09E
:102FA80059B800BF00000240000402400008024077
:102FB800000C0240001002400014024000180240B9
:102FC800001C02400020024000222DE9F047134671
:102FD800D1F800E001274FF0030C04E00133102B77
:102FE80002F1020229D007FA03F434EA0E05F5D1FA
:102FF800D0F800800E790CFA02F5ED4308EA0508CE
:10300800C0F80080D0F8009006FA02FA013E4AEAB9
:103018000909012E0CFA02F8C0F800900FD9C5680A
:10302800CC7925EA0805C560C568944001332C436E
:10303800102BC46002F10202D5D1BDE8F087866882
:1030480091F805903540856086688D7909FA02F90E
:1030580049EA06068660466826EA0404446046682B
:1030680005FA03F4A4B234434460D8E700234FF6CA
:10307800FF720260037143718371C371704700BFAF
:1030880082B04FF480330193019B0B430193019B62
:10309800C361C161019BC361C3690193C3690193A2
:1030A80002B070470369194214BF0120002070471D
:1030B800006980B2704700BF4369194214BF0120FC
:1030C80000207047406980B2704700BF0183704795
:1030D800418370470AB9418370470183704700BF35
:1030E800416170474369594041617047CB0800EB23
:1030F800830001F0070110B48900046A0F238B4094
:1031080024EA03030362036A10BC8A4042EA03010B
:1031180001627047014BC0B218707047003C024012
:10312800054A136818B923F480731360704743F491
:1031380080731360704700BF003C0240054A136863
:1031480018B923F400731360704743F400731360D5
:10315800704700BF003C0240054A136818B923F4C1
:1031680080631360704743F480631360704700BF47
:10317800003C0240024A136843F40063136070473E
:10318800003C0240024A136843F4805313607047BE
:10319800003C0240044B1A69002A03DA0349044A36
:1031A80059605A60704700BF003C024023016745E0
:1031B800AB89EFCD024A136943F0004313617047AE
:1031C800003C0240044B5A69D20703D50349044A1C
:1031D80099609A60704700BF003C02403B2A19087A
:1031E8007F6E5D4C024A536943F001035361704797
:1031F800003C0240044B1A7802F0F3021A701A7865
:1032080010431870704700BF143C0240024B5869C5
:10321800C0F34710704700BF003C0240014B1888BC
:1032280080B27047163C0240024B1878AA3818BF83
:1032380001207047153C0240024B187800F00C0042
:10324800704700BF143C024029B9054A136923EAB4
:10325800000010617047024B1A69104318617047EB
:10326800003C0240034BDB68034214BF01200020EE
:10327800704700BF003C0240014BD860704700BF58
:10328800003C02400B4BDA68D1030AD4DA68D20654
:1032980001D505207047DA6812F0EF0F03D0062039
:1032A800704701207047DB6813F0020F14BF072036
:1032B80008207047003C024000B583B008238DF811
:1032C8000730FFF7DFFF8DF807009DF80730012B67
:1032D800F7D09DF80700C0B203B05DF804FB00BF4B
:1032E80070B5064659B301292FD002290CBF4FF4F7
:1032F80000744FF44074FFF7DFFF082824D1144D01
:103308002B6923F440732B612969214329612B69B7
:1033180023F0F8032B612B6943F002031E432E614F
:103328002B6943F480332B61FFF7C6FF2B6923F029
:1033380002032B612B6923F0F8032B6170BD0C4647
:10334800FFF7BAFF0828DAD070BD4FF48074F7E7AA
:10335800003C024038B50446FFF7AEFF3CB1012CF3
:1033680008D0022C0CBF4FF400744FF440740828A6
:1033780004D038BD08284FF48074FAD10B4D2B695E
:1033880023F440732B612B691C432C612B6943F098
:1033980004032B612B6943F480332B61FFF78CFF07
:1033A8002B6923F004032B6138BD00BF003C0240A9
:1033B800F8B5054616461F46FFF77EFF082800D0D9
:1033C800F8BD0B4C236923F440732361236943F44C
:1033D80040732361236943F001032361C5E9006752
:1033E800FFF76AFF236923F001032361F8BD00BFDB
:1033F800003C024070B505460E46FFF75DFF082801
:1034080000D070BD0A4C236923F4407323612369FB
:1034180043F400732361236943F0010323612E60A1
:10342800FFF74AFF236923F00103236170BD00BF42
:10343800003C024070B505460E46FFF73DFF0828E0
:1034480000D070BD0A4C236923F4407323612369BB
:1034580043F480732361236943F0010323612E80C1
:10346800FFF72AFF236923F00103236170BD00BF22
:10347800003C024070B505460E46FFF71DFF0828C0
:1034880000D070BD094C236923F44073236123697C
:103498002361236943F0010323612E70FFF70CFFBA
:1034A800236923F00103236170BD00BF003C024083
:1034B80038B505460C46FFF7FFFE082800D038BD92
:1034C800054B18881CB9284380B2188038BD80B2D3
:1034D80020EA0500188038BD163C024010B50446A5
:1034E800FFF7EAFE082804BF014B1C7010BD00BF9F
:1034F800153C024070B506460C461546FFF7DCFE43
:10350800082807D1044B197801F00F0131432943EA
:103518002143197070BD00BF143C0240034A137860
:1035280043F002031370FFF7C7BE00BF143C02400C
:103538002DE9F0438DB0164607464FF0000904A860
:103548000D461C46CDF80490DDF8508001F032FF9E
:10355800C02E00F0C980B6F5807F00F0A880802ECC
:1035680000F092809FBB02AD01F040FF0422382397
:103578002846ADF80820ADF80A30ADF80C7001F017
:10358800D3FE04A801F002FF012001F037FF02E09A
:10359800002800F08880102001F0E4FF019B01332F
:1035A8000193019BB3F5803FF2D100287BD0202204
:1035B80080232846ADF80A20ADF80C3001F0B4FE9F
:1035C80001F014FF012001F019FF00243CE004A8D9
:1035D8000CAD01F0DBFE002325F8283D284620220B
:1035E8008023ADF80A20ADF80C3001F09DFE01F003
:1035F800FDFE012001F002FFB8F1000F42D0159B3B
:10360800002710343E4603F1100554F8100C01F061
:1036180003FF54F80C0C01F0FFFE54F8080C01F0FD
:10362800FBFE54F8040C01F0F7FE019600E090B19F
:10363800102001F097FF019B01330193019BB3F523
:10364800803FF4D138B10024002001F0D7FE204695
:103658000DB0BDE8F08301F0E5FE45F8100C01F06F
:10366800E1FE45F80C0C01F0DDFE45F8080C01F010
:10367800D9FE1037B84545F8040C04F1100405F1DB
:103688001005C2D80124DFE7ADF80E902B681BBAED
:1036980008936B681BBA0993AB681BBA0A93EB686B
:1036A8001BBA0B935EE70423ADF8083096E74FF496
:1036B8000073ADF80E302B681BBA04936B681BBA05
:1036C8000593AB681BBA0693EB681BBA07932B6983
:1036D8001BBA08936B691BBA0993AB691BBA0A93A7
:1036E800EB691BBA0B933DE74FF48073ADF80E30CE
:1036F8002B681BBA06936B681BBA0793AB681BBA97
:103708000893EB681BBA09932B691BBA0A936B6978
:103718001BBA0B9326E700BF2DE9F04391B01F4673
:1037280006464FF0000908A80D461446CDF8049047
:10373800DDF8648001F03EFEC02F00F0DE80B7F5B2
:10374800807F00F0BD80802F00F0A7802B681BBA17
:1037580004936B681BBA0593AB681BBA0693EB68B6
:103768001BBA0793BEBB02AC01F040FE042238230B
:103778002046ADF80820ADF80A30ADF80C6001F02D
:10378800D3FD08A801F002FE012001F037FE02E097
:10379800002800F09180102001F0E4FE019B013325
:1037A8000193019BB3F5803FF2D1002800F084809B
:1037B800282280232046ADF80A20ADF80C3001F00D
:1037C800B3FD04A801F000FE01F010FE012001F095
:1037D80015FE002441E008A810AC01F0D7FD002335
:1037E80024F8383D282280232046ADF80A20ADF879
:1037F8000C3001F099FD04A801F0E6FD01F0F6FD9A
:10380800012001F0FBFDB8F1000F44D0189B03F133
:1038180010041A9B00273E4603F1100554F8100CBB
:1038280001F0FAFD54F80C0C01F0F6FD54F8080C00
:1038380001F0F2FD54F8040C01F0EEFD019600E0F1
:1038480090B1102001F08EFE019B01330193019B82
:10385800B3F5803FF4D138B10024002001F0CEFD4B
:10386800204611B0BDE8F08301F0DCFD45F8100CEE
:1038780001F0D8FD45F80C0C01F0D4FD45F8080C12
:1038880001F0D0FD1037B84545F8040C04F11004D8
:1038980005F11005C2D80124DFE7ADF80E902368C2
:1038A8001BBA0C9363681BBA0D93A3681BBA0E93DB
:1038B800E3681BBA0F9349E70423ADF8083091E792
:1038C8004FF40073ADF80E3023681BBA0893636891
:1038D8001BBA0993A3681BBA0A93E3681BBA0B9334
:1038E80023691BBA0C9363691BBA0D93A3691BBAAE
:1038F8000E93E3691BBA0F9328E74FF48073ADF872
:103908000E3023681BBA0A9363681BBA0B93A3682B
:103918001BBA0C93E3681BBA0D9323691BBA0E9369
:1039280063691BBA0F9311E72DE9F04591B09A46E8
:103938000446002508A80F4616460195DDF8648060
:1039480001F038FDBAF1C00F00F0A680BAF5807F0B
:1039580000F08580BAF1800F72D03B681BBA0493DF
:103968007B681BBA0593BB681BBA0693FB681BBA36
:1039780008A8079301F00AFD002C5DD10423ADF8D7
:1039880008303022802302A8ADF80A20ADF80C30A8
:1039980001F0CAFC04A801F017FD01F027FD012081
:1039A80001F02CFDB8F1000F44D0189B03F110046E
:1039B8001A9B002703F110053E4654F8100C01F03D
:1039C8002BFD54F80C0C01F027FD54F8080C01F0FD
:1039D80023FD54F8040C01F01FFD019600E090B19E
:1039E800102001F0BFFD019B01330193019BB3F54A
:1039F800803FF4D138B10024002001F0FFFC2046BC
:103A080011B0BDE8F08501F00DFD45F8100C01F08E
:103A180009FD45F80C0C01F005FD45F8080C01F00E
:103A280001FD1037B84545F8040C04F1100405F100
:103A38001005C2D80124DFE70023ADF80830A0E75D
:103A4800ADF80E5033681BBA0C9373681BBA0D930C
:103A5800B3681BBA0E93F3681BBA0F937DE74FF454
:103A68000073ADF80E3033681BBA089373681BBA3D
:103A78000993B3681BBA0A93F3681BBA0B933369AB
:103A88001BBA0C9373691BBA0D93B3691BBA0E93D7
:103A9800F3691BBA0F9360E74FF48073ADF80E30EB
:103AA80033681BBA0A9373681BBA0B93B3681BBAC3
:103AB8000C93F3681BBA0D9333691BBA0E937369A1
:103AC8001BBA0F9349E700BF08B5604B984235D041
:103AD800B0F1804F3CD05E4B984243D05D4B98424A
:103AE8004AD05D4B984251D05C4B984258D05C4BC1
:103AF80098425FD05B4B984266D05B4B98426DD042
:103B08005A4B984276D05A4B98427FD0594B98429C
:103B180000F08880584B984200F08E80574B9842AE
:103B280000D008BD01214FF4807002F0BDFA0021D9
:103B38004FF48070BDE8084002F0B6BA012108468B
:103B480002F0C0FA00210120BDE8084002F0BABA2C
:103B58000121084602F0A8FA00210120BDE808402A
:103B680002F0A2BA0121022002F09EFA00210220EE
:103B7800BDE8084002F098BA0121042002F094FA46
:103B880000210420BDE8084002F08EBA0121082077
:103B980002F08AFA00210820BDE8084002F084BA41
:103BA8000121102002F080FA00211020BDE8084011
:103BB80002F07ABA0121202002F076FA00212020B2
:103BC800BDE8084002F070BA0121022002F07AFA3A
:103BD80000210220BDE8084002F074BA01214FF428
:103BE800803002F06FFA00214FF48030BDE80840C1
:103BF80002F068BA01214FF4003002F063FA0021A4
:103C08004FF40030BDE8084002F05CBA01214FF4DF
:103C1800802002F057FA00214FF48020BDE80840C8
:103C280002F050BA0121402002F03EFA0021402063
:103C3800BDE8084002F038BA0121802002F034FAC9
:103C480000218020BDE8084002F02EBA00000140A3
:103C58000004004000080040000C00400010004034
:103C680000140040000401400040014000440140AD
:103C78000048014000180040001C0040002000409F
:103C8800224A038890429BB212D002F58062904289
:103C98000ED0B0F1804F0BD0A2F58032904207D001
:103CA80002F58062904203D002F58062904203D10F
:103CB8004A8823F070031343154A90421ED002F538
:103CC800806290421AD00A8970B423F440730F4C72
:103CD8004E680D889BB21343A0420380C6620585D7
:103CE80006D00C4B984203D00123838270BC7047E6
:103CF8008B7A03860123838270BC704703800B880C
:103D08004A68C2620385012383827047000001402C
:103D1800001000400004014000234FF0FF324260D1
:103D28000380038143808372704700BF01858282CC
:103D3800704700BF038823F070031B041B0C194352
:103D48000180704741627047C1627047406A70479E
:103D5800008D80B2704700BF038829B923F00203A1
:103D68001B041B0C038070479BB243F002030380C3
:103D7800704700BF038829B923F004031B041B0CF8
:103D8800038070479BB243F004030380704700BF71
:103D9800038829B923F080031B041B0C0380704798
:103DA8009BB243F080030380704700BF038823F071
:103DB80008031B041B0C038003889BB21943018072
:103DC800704700BF038823F440731B041B0C038057
:103DD80003889BB219430180704700BF038829B943
:103DE80023F001031B041B0C038070479BB243F0B4
:103DF80001030380704700BFF0B5048CB1F80CC014
:103E08004B880F881A4E24F001042404240C0484DF
:103E1800058CB0F804E0048B25F0020524F0730249
:103E28002D042D0C4CEA030312042B43120CB04250
:103E38009BB21FFA8EF442EA070208D00D4DA84241
:103E480005D089688480028341630384F0BDCE89EC
:103E58000F8A4D8A23F00803334324F440748E8874
:103E68003D4323F004032C433343A4B2E9E700BFE6
:103E78000000014000040140F0B5058C0C88B1F841
:103E88000CC0B1F802E01E4E25F010052D042D0CD3
:103E98000584028C8788058B22F020031B0425F4F7
:103EA800E6421B0C120443EA0C13120C43EA0E13ED
:103EB80042EA0422B0429BB2BDB294B208D0114A81
:103EC800904205D08A688580048382630384F0BDAC
:103ED80023F08002CB890F8A8E8892B242EA0312BD
:103EE8004FF6BF73134025F440654A8A45EA8705B3
:103EF80043EA061345EA82059BB2ADB2E2E700BF8A
:103F08000000014000040140F0B5058CB1F80CC078
:103F1800B1F802E00C881D4F25F480752D042D0C96
:103F28000584028C8688858B22F400731B0425F097
:103F380073021B0C43EA0C23120443EA0E23120CEF
:103F4800B8429BB2B5B244EA020408D0104A904283
:103F580005D08A6885808483C2630384F0BD23F416
:103F68000062CB890F8A8E8892B242EA03224FF60A
:103F7800FF33134025F440554A8A45EA071543EABA
:103F8800062345EA02159BB2ADB2E2E70000014004
:103F980000040140028CB1F802C022F480521204DD
:103FA800120C2DE9F041B1F80C80B1F800E0028460
:103FB800058C8788828B124E25F4005422F4E64340
:103FC8002404240C1B0444EA08341B0C44EA0C3473
:103FD80043EA0E23B042A4B2BAB29BB209D0094D4B
:103FE800A84206D089688280838301640484BDE87E
:103FF800F0810D8A22F4804242EA851292B2F1E7FA
:1040080000000140000401400023038043808380B6
:1040180083608381C38103824382704710B4048C18
:104028000123A4B28B4024EA030321F0080403848B
:10403800183074B10439C1F34E0148F6FF730C58B7
:1040480023400B5012020B5810BC92B21A430A506C
:10405800704749084FF68F730C5823400B500B5884
:1040680010BC1A430A507047416370478163704718
:10407800C163704701647047038B23F070031B040E
:104088001B0C194301837047038B23F4E0431B0483
:104098001B0C43EA012189B201837047838B23F00B
:1040A80070031B041B0C194381837047838B23F413
:1040B800E0431B041B0C43EA012189B2818370474A
:1040C800038B23F008031B041B0C1943018370475F
:1040D800038B23F400631B041B0C43EA012189B200
:1040E80001837047838B23F008031B041B0C1943BF
:1040F80081837047838B23F400631B041B0C43EA02
:10410800012189B281837047038B23F004031B04C8
:104118001B0C194301837047038B23F480631B0432
:104128001B0C43EA012189B201837047838B23F07A
:1041380004031B041B0C194381837047838B23F4EE
:1041480080631B041B0C43EA012189B281837047F9
:10415800038B23F080031B041B0C19430183704756
:10416800038BC3F30E0343EA012189B2018370472D
:10417800838B23F080031B041B0C19438183704736
:10418800838BC3F30E0343EA012189B2818370470D
:10419800038C23F002031B041B0C19430184704792
:1041A800038C23F008031B041B0C1943018470477C
:1041B800038C23F020031B041B0C43EA011189B272
:1041C80001847047038C23F080031B041B0C43EA13
:1041D800011189B201847047038C23F400731B0416
:1041E8001B0C43EA012189B201847047038C23F434
:1041F80000631B041B0C43EA012189B20184704748
:10420800038C23F400531B041B0C43EA013189B2CD
:104218000184704710B4048C01238B40A4B224EAB3
:1042280003040484038C10BC8A4013439BB20384A8
:10423800704700BF10B4048C04238B40A4B224EA56
:1042480003040484038C10BC8A4013439BB2038488
:10425800704700BF0B88F0B5002B32D0042B57D025
:10426800082B00F08380028C4F88B1F804E00E8997
:10427800CD8822F480521204120C0284848B028CA2
:1042880024F4407122F4005309055B04090D5B0C0A
:1042980041EA0E2143EA073341EA06319BB243F46F
:1042A800805389B281830384828B22F44062120492
:1042B800120C8283838B9BB243EA05239BB28383D0
:1042C800F0BD028C4E888D880B89CC8822F00102C3
:1042D8001204120C0284028B018C92B222F0F302B7
:1042E80021F00A0142EA0313090446F001029BB2D5
:1042F800090C2B43114303830184038B23F00C0324
:104308001B041B0C0383038B9BB223430383F0BD65
:10431800058C4F888E88B1F808E0CC8825F010010C
:104328000904090C0184028B018C22F440731B05DB
:104338001B0D8AB243EA0E3322F0A0029BB242EA76
:10434800071243EA062392B29BB242F0100203839B
:104358000284038B23F440631B041B0C0383038B2D
:104368009BB243EA04239BB20383F0BD068C4F88BB
:104378008D880A89CC8826F480710904090C018487
:10438800818B038C89B29BB221F0F30123F4206363
:1043980041EA021243EA072392B29BB243F48073C4
:1043A8002A4382830384838B23F00C031B041B0C96
:1043B8008383838B9BB21C438483F0BD002301223B
:1043C800828003804380C38003817047B1F802C0B4
:1043D8000B88F0B5B1F804E0BCF1000F0CBF022463
:1043E8000024BEF1010F0CBF02250125002B4BD084
:1043F800038C0E89C98823F010031B041B0C03844B
:10440800028B078C22F440731B05BAB21B0D43EADA
:10441800063322F0A0029BB242EA0C1243EA0E23B2
:1044280092B29BB242F0100203830284038B23F4FE
:1044380040631B041B0C0383038B9BB243EA0123D9
:104448009BB20383038C23F001031B041B0C03841E
:10445800028B078C92B222F0F302BFB242EA061333
:1044680027F00A029BB242F001022B431443038354
:104478000484038B23F00C031B041B0C0383038BA2
:104488009BB219430183F0BD038C0F89CE8823F0BA
:1044980001031B041B0C0384018B038C89B221F0DC
:1044A800F30123F00A0341EA07111B044CF001024F
:1044B80089B21B0C13434EEA010EA0F818E00384DE
:1044C800038B23F00C031B041B0C0383038B9BB28D
:1044D80033430383038C23F010031B041B0C038456
:1044E800028B018C22F440731B051B0D8AB243EA30
:1044F800073322F0A0029BB242F0100243EA0523E0
:1045080042EA041403830484038B23F440631B04EA
:104518001B0C0383038B9BB243EA0626B6B20683C1
:10452800F0BD00BF406B7047806B7047C06B704731
:10453800006C7047038B23F00C031B041B0C0383D4
:10454800038B9BB219430183704700BF038B23F48D
:1045580040631B041B0C0383038B9BB243EA0121BA
:1045680089B20183704700BF838B23F00C031B04BF
:104578001B0C8383838B9BB219438183704700BFD5
:10458800838B23F440631B041B0C8383838B9BB2B4
:1045980043EA012189B28183704700BFF0B54B8897
:1045A800B1F800E08F88CE880D894C898A894EEA57
:1045B80003033B4333432B43234313439BB2A0F8EA
:1045C8004430F0BD0023038043808380C38003818F
:1045D80043818381704700BFB0F8443021B9C3F3E9
:1045E8000E03A0F8443070476FEA43436FEA534321
:1045F8009BB2A0F844307047838829B923F004039C
:104608001B041B0C838070479BB243F00403838018
:10461800704700BF838829B923F001031B041B0CD2
:10462800838070479BB243F001038380704700BFCB
:1046380081827047038A194214BF01200020704705
:10464800C94389B201827047038A828911EA03004B
:1046580092B203D0114214BF01200020704700BF5E
:10466800C94389B2018270470A43A0F848207047BD
:1046780083899BB21AB923EA0101818170471943E2
:1046880081817047FFF7F4BF838829B923F00803B5
:104698001B041B0C838070479BB243F00803838084
:1046A800704700BF038923F007031B041B0C038119
:1046B800704700BF038923F070031B041B0C1943C8
:1046C800018103899BB243F007030381704700BF50
:1046D800602930B4048C24D024F001042404240C70
:1046E8000484048B058CA4B224F0F304ADB244F026
:1046F800010425F00A0544EA031345F001049BB2BE
:10470800224303830284038923F070031B041B0CD8
:104718000B43038103899BB243F00703038130BC39
:10472800704724F010042404240C0484048B058CA2
:1047380024F440742405ADB2240D25F0A00544F4FA
:10474800807445F0100544EA033345EA02129BB22F
:1047580092B203830284D6E710B4048942EA0323A1
:10476800E4B223439BB219430181038910BC23F0AF
:1047780077031B041B0C43F077030381704700BFCA
:1047880010B4048942EA0323E4B223439BB21943D9
:104798000181038910BC9BB243F4804303817047B5
:1047A800038923F070031B041B0C19430181704714
:1047B800838823F070031B041B0C838083889BB2BF
:1047C80019438180704700BF038923F007031B0446
:1047D8001B0C038103899BB219430181704700BFF9
:1047E800038923F080031B041B0C038103899BB2FC
:1047F80019430181704700BF10B40489E4B2214312
:104808000A4342EA032399B2018110BC704700BFF2
:1048180070B40689048B058C24F4407424F00304D6
:10482800ADB225F0220526F0070624042A433604F3
:10483800240C360C44F4807442EA0313314344F0E8
:1048480001049AB201810483028470BC704700BFDE
:10485800838829B923F080031B041B0C83807047CD
:104868009BB243F080038380704700BFA0F85010CC
:10487800704700BF4FF0204360B143F2D20243F8C3
:104888002020800000F120406FF070434360C0F8A2
:104898000431704743F2DB021A60F2E7F0B4436870
:1048A8008768C568046900F1140146C93B432B4376
:1048B80023430B431343056A426A816A04683343FE
:1048C8002B431343C66A026B0B43A400334304F122
:1048D80020441343082F23601CD0456B2968AB691B
:1048E8006F68AA680B4343EA0711EB682F696D6983
:1048F80041EA022242EA034242EA075343EA0563D5
:10490800B6F5804F63600AD06FF07043C4F8043185
:10491800F0BC7047236843F040032360DDE7806BF9
:10492800066881694268836805694069314341EADC
:10493800021242EA032242EA055343EA0063C4F83A
:104948000431F0BC704700BFF0B4816B446B0223A4
:1049580043600F220023FF254FF480574FF4005681
:104968004762866203608360C36003614361836159
:10497800C3610362C3620363A36122606260E26091
:1049880022616261A5600A604A608D60CA600A613E
:104998004A618B61F0BC7047800000F1204021B96A
:1049A8000268044B134003607047036843F0010337
:1049B80003607047FEFF0F0010280CBF054B064B25
:1049C8004FF0FC3218204021186059609A60DA6074
:1049D800704700BF600000A0800000A02DE9F041F2
:1049E800066AC36945688168B2689C680769D0F837
:1049F80000E0D3F80C80D0F818C082B029430192A7
:104A0800C2685D6841F0080111432404019A3943E2
:104A180044EA052774681D684369120442EA0422BF
:104A28003468F668BEF1100F41EA432147EA0500F1
:104A38000CBF074B074B224341EA4C3140EA086060
:104A480042EA066219609860DA6002B0BDE8F08157
:104A5800600000A0800000A010B4016AC46910239F
:104A680003600022FC2342608260C26002614261EE
:104A7800826123606360A360E3600B604B608B60BE
:104A8800CB6010BC704700BF41B110280CBF084A6A
:104A9800084A136843F004031360704710280CBFDA
:104AA800034A044A044B11680B401360704700BF67
:104AB800600000A0800000A0FBFF0F0041B110289B
:104AC8000CBF084A084A136843F040031360704754
:104AD80010280CBF034A044A044B11680B401360AA
:104AE800704700BF600000A0800000A0BFFF0F005B
:104AF80010280CBF014B024B58697047600000A09A
:104B0800800000A0054B4FF0FC32182000211860EF
:104B180059609A60DA601A61704700BFA00000A06F
:104B280090E80C00816842F0100270B442EA432316
:104B3800144CC6680569406943EA4133236096E826
:104B48000C00B168F668090441EA0323134343EAF9
:104B58000663A36095E80C00A968ED68090441EABA
:104B68000323134343EA0563E36090E80C0081687C
:104B7800C068090441EA0323134343EA006323613D
:104B880070BC7047A00000A030B40169C4684269D5
:104B9800FC23002505604560856023606360A36091
:104BA800E3600B604B608B60CB6030BC136053607C
:104BB8009360D360704700BF054A20B91168054B60
:104BC8000B4013607047136843F004031360704789
:104BD800A00000A0FBFF0F0052B110281AD0B0F5BA
:104BE800807F0CBF0E4A0F4A5368194351607047C3
:104BF800102809D0B0F5807F0CBF094A094A5368CC
:104C080023EA010151607047074A536823EA01010A
:104C180051607047044A536819435160704700BF98
:104C2800800000A0A00000A0600000A010280AD00A
:104C3800B0F5807F0CBF054B054B5B680B4214BF7A
:104C4800012000207047034B5B68F7E7800000A055
:104C5800A00000A0600000A0102809D0B0F5807F57
:104C68000CBF064A064A536823EA0101516070479F
:104C7800044A536823EA010151607047800000A08C
:104C8800A00000A0600000A010280ED0B0F5807F22
:104C98000CBF074B074B5B6813EA010004D013EA0B
:104CA800D10314BF012000207047034B5B68F3E772
:104CB800800000A0A00000A0600000A0102809D07B
:104CC800B0F5807F0CBF064A064A536823EAD10133
:104CD80051607047044A536823EAD1015160704714
:104CE800800000A0A00000A0600000A008B501217D
:104CF800402001F0BDF900214020BDE8084001F046
:104D0800B7B900BF054A136818B923F00403136044
:104D1800704743F004031360704700BF0008065053
:104D2800014B9868704700BF00080650054A136891
:104D380018B923F008031360704743F008031360A1
:104D4800704700BF00080650024B6FEA0010586019
:104D5800704700BF00080650034B5B68184214BF39
:104D680001200020704700BF00080650FFF7F4BF7D
:104D7800C043024BC0B25860704700BF00080650DD
:104D8800F0B501F003038DB00024DB00ADF8064058
:104D98000D46074602941646ADF80630FCF75AFB56
:104DA8008022202303A8049403920593FCF75EFB5A
:104DB800BDF8060080B2FCF789FB3C4635B154F8D3
:104DC800040BFCF78FFBE31BAB42F8D3FCF7A6FB05
:104DD80000E068B10820FCF7F7FB029B013302935F
:104DE800029BB3F5803FF4D110B100200DB0F0BDA7
:104DF80007A8FCF785FB079B1BBA3360089B1BBA07
:104E08007360099B1BBAB3600A9B1BBA0120F3604D
:104E18000DB0F0BD2DE9F0410D468CB003F0030153
:104E28001F4605F003030024C900DB00ADF8044069
:104E38009046ADF8064006460294ADF80410ADF869
:104E48000630FCF707FB402280212023954203917E
:104E58000492059325D94FF4803303A80693FCF7F1
:104E680005FBBDF8060080B2FCF730FB344654F869
:104E7800040BFCF737FBA31B9D42F8D8FCF74EFB4D
:104E880000E0D0B10820FCF79FFB029B013302939E
:104E9800029BB3F5803FF4D178B100200CB0BDE897
:104EA800F08103A80694FCF7E1FABDF8060080B289
:104EB800FCF70CFB002DD9D1E0E7BDF8040080B267
:104EC800FCF704FB44463FB154F8040BFCF70AFB1B
:104ED800C8EB04039F42F7D8FCF720FB002302939A
:104EE80000E058B10820FCF76FFB029B01330293E6
:104EF800029BB3F5803FF4D10028CED1BDF806005F
:104F080080B2FCF7E3FA344635B154F8040BFCF7E9
:104F1800E9FAA31B9D42F8D8FCF700FB0023029393
:104F280000E058B10820FCF74FFB029B01330293C5
:104F3800029BB3F5803FF4D10028AED107A8FCF757
:104F4800DFFA079B1BBA129A1360089B1BBA5360BF
:104F5800099B1BBA93600A9B1BBA0120D3609DE78B
:104F68002DE9F0438DB08146002604A80F469846E7
:104F780014460196149D00F01DFAB9F1010F16BFF1
:104F88000423ADF80860ADF808300026802302A895
:104F9800ADF80C30ADF80A6000F0C6F93B681BBAF2
:104FA80006937B681BBA0793BB681BBA0893FB6818
:104FB8001BBA09933B691BBA0A937B691BBA04A8FD
:104FC8000B9300F0E3F900F011FA012000F016FA53
:104FD800B8F1000F2FD008340835374654F8080CBC
:104FE80000F01AFA54F8040C00F016FA019700E0E1
:104FF80090B1102000F0B6FA019B01330193019B98
:10500800B3F5803FF4D138B10024002000F0F6F960
:1050180020460DB0BDE8F08300F004FA45F8080C0E
:1050280000F000FA0836B04545F8040C04F108040D
:1050380005F10805D2D80124E7E700BF2DE9F045BE
:1050480091B08246002508A80E461C4617460195D1
:10505800DDF8608000F0AEF9BAF1010F18BF042343
:105068004FF0080218BFADF808300DEB02004FF002
:10507800800308BFADF80850ADF80C30ADF80A2031
:1050880000F052F933681BBA0A9373681BBA0B9382
:10509800B3681BBA0C93F3681BBA0D9333691BBA38
:1050A8000E9373691BBA08A80F9300F06FF93B6859
:1050B8001BBA04937B681BBA04A8059300F084F913
:1050C80000F094F9012000F099F9B8F1000F32D0FE
:1050D800199B0027083403F108053E4654F8080CCC
:1050E80000F09AF954F8040C00F096F9019600E0E3
:1050F80090B1102000F036FA019B01330193019B17
:10510800B3F5803FF4D138B10024002000F076F9DF
:10511800204611B0BDE8F08500F084F945F8080C88
:1051280000F080F90837B84545F8040C04F1080484
:1051380005F10805D2D80124E7E700BF08B5012129
:105148004FF0805000F0B0FF00214FF08050BDE8D4
:10515800084000F0A9BF00BF014B1860704700BFAE
:1051680020000E42034A136823F0E003184310603E
:10517800704700BF00700040014B1860704700BFC7
:1051880010000E42014B1860704700BFA0000E428D
:10519800014B1860704700BFA4000E42054A13680F
:1051A80018B143F480431360704723F480431360BD
:1051B800704700BF00700040014B1860704700BF87
:1051C80024000E4210B40B4C0B4A236823F003034F
:1051D800184320601369012943F00403136107D0C1
:1051E80020BF054A10BC136923F0040313617047FC
:1051F80030BFF6E70070004000ED00E0074B0849BB
:105208001A6842F004021A601A6842F002021A6030
:105218000B6943F004030B6130BF70470070004016
:1052280000ED00E0034B5B68034214BF012000203F
:10523800704700BF00700040024A136843EA8000CC
:10524800106070470070004040F0BF60024B40F4AF
:105258000030D860704700BF00ED00E0C3785BB94C
:10526800037818485A09203203F01F03012101FA74
:1052780003F340F822307047134BF0B4D9684778ED
:10528800827804780F4EC943C1F30221C1F10405A5
:10529800EDB20F2307FA05F50B41EDB213402B438E
:1052A80004F1604202F561421B01DBB282F800336F
:1052B8000378012203F01F015B098A4046F8232086
:1052C800F0BC704700E100E000ED00E021F0604133
:1052D80021F07F01014B08439860704700ED00E022
:1052E800044A136919B923EA00001061704718438A
:1052F8001061704700ED00E0044A136804280CBFF1
:1053080043F0040323F004031360704710E000E047
:1053180008B50121102000F0ABFE00211020BDE8E7
:10532800084000F0A5BE00BF144B1A6822F03802EE
:1053380030B41A601C684288858814431C601C6855
:1053480024F0C0041C60196822F018022943202A9E
:10535800196007D11968C48821F4407119601A6866
:1053680022431A60054B0088196821F0040119606E
:105378001A6802431A6030BC704700BF000006502C
:105388000023038043808380C3807047084B0268F2
:105398001A6242685A6282689A62C268DA6202696C
:1053A8001A6342695A6382699A63C269DA63704709
:1053B800000006500023036043608360C3600361FC
:1053C80043618361C3617047044B02681A64426891
:1053D8005A6482689A64C268DA64704700000650AA
:1053E8000023036043608360C3607047024A136808
:1053F80043F480431360704700000650054A136861
:1054080018B923F400431360704743F40043136052
:10541800704700BF00000650014B9860704700BFFE
:1054280000000650014BD868704700BF00000650C6
:10543800F0B482B0264C00230193236923F00103C2
:105448002361236813F0080F14BF112515254FF6A3
:10545800FF7601E0012A08D06268019B01330193BD
:10546800019BB34202EA0502F4D1194B5A68154070
:10547800012D04D00025284602B0F0BC70471A69F7
:1054880022F002021A611A6822F400421A601A68AD
:105498000E684C688F6802F47F7202601A6C426072
:1054A8005A6C82609A6CC260DB6CCA6803610B69D3
:1054B800026243624A698B69C96946618461C7614E
:1054C8008262C3620163284602B0F0BC704700BF25
:1054D800000006500F4B02681A6042691A6282691E
:1054E8005A62C2699A62026ADA62426A1A63826A14
:1054F8005A63C26A9A63026BDA6342681A64826802
:105508005A64C2689A640269DA641A6842F400420A
:105518001A60704700000650054A136929B923EA42
:10552800000000F0FF0010617047184310617047D9
:1055380000000650054A536929B923EA000000F023
:10554800FF005061704718435061704700000650D3
:10555800034BDB69184214BF01200020704700BFCD
:1055680000000650044B82064CBF9B695B681842DA
:1055780014BF012000207047000006502DE9F043B9
:105588008DB08146002704A80E4698461446019718
:10559800149DFFF70FFFB9F1010F1CBF0423ADF8ED
:1055A80008304FF010024FF0800302A808BFADF892
:1055B8000870ADF80C30ADF80A20FFF7B5FE336877
:1055C8001BBA069373681BBA04A80793FFF7DEFE9D
:1055D800FFF70CFF0120FFF711FFB8F1000F30D0E3
:1055E8000027083408353E4654F8080CFFF714FF26
:1055F80054F8040CFFF710FF019600E090B110205A
:10560800FFF7B0FF019B01330193019BB3F5803F86
:10561800F4D138B100240020FFF7F0FE20460DB089
:10562800BDE8F083FFF7FEFE45F8080CFFF7FAFE29
:105638000837B84545F8040C04F1080405F10805D5
:10564800D2D80124E7E700BF2DE9F04591B08246A2
:10565800002508A80F461C4616460195DDF860800F
:10566800FFF7A8FEBAF1010F1CBF0423ADF80830FC
:105678004FF018024FF0800302A808BFADF8085099
:10568800ADF80C30ADF80A20FFF74EFE3B681BBAA8
:105698000A937B681BBA08A80B93FFF777FE336859
:1056A8001BBA049373681BBA04A80593FFF78CFE12
:1056B800FFF79CFE0120FFF7A1FEB8F1000F32D0E2
:1056C800199B0027083403F108053E4654F8080CD6
:1056D800FFF7A2FE54F8040CFFF79EFE019600E0C7
:1056E80090B11020FFF73EFF019B01330193019B0E
:1056F800B3F5803FF4D138B100240020FFF77EFED7
:10570800204611B0BDE8F085FFF78CFE45F8080C7F
:10571800FFF788FE0837B84545F8040C04F108047B
:1057280005F10805D2D80124E7E700BF054B0022A0
:105738001F211A60DA6059619A61DA611A625A6245
:10574800704700BF00000550F0B40F4C078821686F
:1057580042888688C58803893A4321F480413243C8
:1057680021F001012A43458921601A438189236870
:105778002A430A4323F47F6392B223F002031343BC
:105788002360F0BC704700BF000005500023038071
:1057980043808380C380038143818381704700BF36
:1057A80030B4428805888488C388044942EA05429F
:1057B80043EA04430A6230BC4B627047000005505C
:1057C800054A136818B923F004031360704743F0BF
:1057D80004031360704700BF00000550014B0268C6
:1057E8009A61704700000550054A136818B923F0FC
:1057F80008031360704743F008031360704700BF45
:1058080000000550054A136818B923F48043136053
:10581800704743F480431360704700BF0000055091
:10582800054A136818B923F001031360704743F061
:1058380001031360704700BF00000550014B986AD0
:10584800704700BF00000550054A29B9D368C04316
:1058580080B21840D0607047D3681843D060704752
:1058680000000550030B012B09D0022B054B0CBF80
:105878005B681B69184214BF012000207047014B68
:105888009B68F7E700000550014B5861704700BF5F
:1058980000000550034B1B69184214BF012000206B
:1058A800704700BF00000550014B5861704700BFAA
:1058B8000000055008B501214FF4804000F002FCBB
:1058C80000214FF48040BDE8084000F0FBBB00BF5A
:1058D800014B1860704700BF0038014001F0FC031D
:1058E80003F1804303F59C3301F0030110B48900F0
:1058F8009C680F228A4024EA02029A609A6810BCC7
:105908008840104398607047014B1860704700BF8B
:10591800DC002742014B1860704700BF0004274293
:10592800024B186AC0F30020704700BF00380140DE
:1059380008B501214FF4807000F0C4FB00214FF43A
:105948008070BDE8084000F0BDBB00BFF0B54468FA
:105958000A680E79D1F810E0CD680F4B24F0407436
:1059680024F48074224342EA0622426087688A68E7
:105978004E794EEA050422433B40134343EA46036B
:1059880083600A7DC36A013AD2B223F4700343EA02
:105998000253C362F0BD00BFFDF7FFC00023012220
:1059A80002750360037143718360C36003617047CC
:1059B80070B442680668064D8468C168054B68681B
:1059C800324322430A43034013436B6070BC704761
:1059D80000230140E030FCFF002303604360836044
:1059E800C3607047836819B923F001038360704767
:1059F80043F0010383607047436823F4400323F4B2
:105A0800007319434160704741628262704700BF6A
:105A1800436823F01F03194341607047054A5368E0
:105A280018B923F400035360704743F4000353602C
:105A3800704700BF00230140054A536818B923F492
:105A480080035360704743F480035360704700BF7E
:105A580000230140092970B41DD9A1F10A0606EBFB
:105A68004606C5680724B440B34025EA0404234326
:105A7800062AC3601BD90C2A27D90D3A02EB8202E9
:105A8800C36A1F24944001FA02F223EA04010A437C
:105A9800C26270BC704701EB410605690724B44037
:105AA800B34025EA04042343062A0361E3D8013AF4
:105AB80002EB8202436B1F24944001FA02F223EAAC
:105AC80004010A43426370BC7047073A02EB820242
